:100000000C942A000C94FF030C9447000C944700B6
:100010000C9447000C9447000C9447000C94470044
:100020000C9447000C9447000C9447000C94470034
:100030000C9447000C9447000C94EA020C9447007F
:100040000C9447000C9447000C9447000C94E9066C
:100050000C94470011241FBECFE5D4E0DEBFCDBF16
:1000600011E0A0E6B0E0EEEAF6E102C005900D92E4
:10007000A83CB107D9F721E0A8ECB1E001C01D927E
:10008000A43FB207E1F70E94E5070C94550B0C94CE
:1000900000002BB122602BB92AB128612AB920B502
:1000A000266820BD0E94D60920E030E040E051E4FF
:1000B0000E94640A9B01AC0160E074E284EF9AE460
:1000C0000E942E0920E030E040E85FE30E94C10872
:1000D0000E94D10A0E94A00969B970BD8FE39CE912
:1000E0000197F1F700C0000008955D9BFECF8CB929
:1000F0000895CF93E8EEF1E09EE790839FEF918320
:1001000096E0928383831482658346838FEE878390
:10011000F894C0E00EC0EC2FF0E0E851FE4F808173
:100120000E94750087EE93E00197F1F700C0000090
:10013000CF5FC83080F37894CF9108952FE788E39C
:1001400091E0215080409040E1F700C00000809194
:10015000F0019091F101807F99278034910539F465
:1001600040918A0060E086E00E94790019C08033E7
:10017000910531F440E060E086E00E94790010C013
:100180008032910531F440E060E084E00E94790023
:1001900007C0409729F440E060E085E00E947900C4
:1001A0008091F0019091F1018F7099278530910530
:1001B00049F44091D601440F4F5F60E083E00E9414
:1001C00079003EC084309105A1F440E060E082E017
:1001D0000E9479002FE788E391E021508040904011
:1001E000E1F700C0000040E060E082E00E9479009A
:1001F00027C08330910531F440E060E08DE00E943B
:1002000079001EC08230910531F440E060E08EE05C
:100210000E94790015C0019799F440E060E081E008
:100220000E9479002FE788E391E0215080409040C0
:10023000E1F700C0000040E060E081E00E9479004A
:100240001092F1011092F001089583E090E09093F4
:10025000F3018093F20120E030E053C081E090E0B0
:10026000022E02C0880F991F0A94E2F7809585BB81
:100270008FE19EE40197F1F700C0000083B3807F17
:10028000803F51F48091F2019091F3010496909394
:10029000F3018093F20133C08FE19EE40197F1F7FF
:1002A00000C0000083B3807F90E0803F910539F16A
:1002B000803E910550F08091F2019091F3010397F7
:1002C0009093F3018093F2010895803D910550F0E1
:1002D0008091F2019091F30102979093F301809342
:1002E000F2010895803B9105B0F08091F201909168
:1002F000F30101979093F3018093F20108952F5F2A
:100300003F4F2430310508F4A9CF8FEF90E0909350
:10031000F3018093F20108950E9425018091F2017A
:100320009091F3018031910508F053C1880F991F16
:10033000FC01E855FE4F808191819093F3018093F9
:10034000F2018BB380628BBB1092E5011092E40145
:100350008091F2019091F3018A30910578F4ECE8F4
:10036000F0E020813181338322839183808384E094
:1003700090E09093DD018093DC011DC18A309105EE
:1003800009F05DC04091DC015091DD01BA0164705B
:10039000772742FF1AC0ECE8F0E0A081B1818281AA
:1003A0009381FC01EE0FFF1F9C01220F331F220FD0
:1003B000331F220F331FCF01820F931F8A0F9B1F02
:1003C00001979093D7018093D601672B11F441FFD9
:1003D000F2C0ECE8F0E011821082138212822091C8
:1003E000D6013091D7012B30310510F58091F00105
:1003F0009091F101807F992785609093F10180931E
:10040000F00181E090E09093DD018093DC01309376
:10041000D9012093D8011092CB011092CA011092F9
:10042000CD011092CC019093E7018093E601C3C007
:1004300088E090E09093DD018093DC01BCC08B30BC
:10044000910571F58091E6019091E701892B81F08A
:100450008091F0019091F101807F992782609093C3
:10046000F1018093F0011092E7011092E60111C0B2
:100470008091F0019091F101807F992783609093A2
:10048000F1018093F00181E090E09093E701809387
:10049000E60181E090E09093DD018093DC018BC068
:1004A0008C30910509F043C08091D8019091D90119
:1004B000009789F02091F0013091F101207F3327DE
:1004C00024603093F1012093F00101979093D901BA
:1004D0008093D80111C08091F0019091F101807F4B
:1004E000992785609093F1018093F00189E090E075
:1004F0009093D9018093D80181E090E09093DD0141
:100500008093DC012091D8013091D9013093D7013B
:100510002093D6019093E7018093E6011092CB01DE
:100520001092CA011092CD011092CC0144C00D97D7
:1005300009F041C08091D8019091D901893091058D
:1005400088F42091F0013091F101207F3327216060
:100550003093F1012093F00101969093D90180939B
:10056000D8010FC08091F0019091F101807F99270F
:1005700085609093F1018093F0011092D90110925F
:10058000D8018091D8019091D9019093D70180939F
:10059000D60181E090E09093DD018093DC0190939F
:1005A000E7018093E6011092CB011092CA011092EC
:1005B000CD011092CC01DD9B0CC02FEF81EE94E0B9
:1005C000215080409040E1F700C000008BB38F7D48
:1005D0008BBB08951F920F920FB60F9211242F9389
:1005E0003F936F937F938F939F93AF93BF9384B108
:1005F00090E09093E3018093E20185B190E09093C5
:10060000E3018093E201389963C08A30910548F58F
:100610008091DE019091DF019C012370332722300D
:10062000310509F4D6C08C7F992782609093DF0151
:100630008093DE0182E090E09093DD018093DC0105
:100640001092E5011092E4018091D6019091D701BA
:10065000009709F4BEC001979093D7018093D6010B
:10066000B8C0863F910540F18091DE019091DF0195
:100670009C0123703327232B09F4ABC08C7F99276F
:100680009093DF018093DE0182E090E09093DD01A2
:100690008093DC011092E5011092E4018091D60173
:1006A0009091D7018930910508F093C001969093FD
:1006B000D7018093D6018DC08091DE019091DF013A
:1006C0008C7F992781609093DF018093DE0181C048
:1006D0008A309105D0F58091DE019091DF019C0177
:1006E0002C7033272830310509F473C0837F992794
:1006F00088609093DF018093DE011092E1011092F7
:10070000E00120918A0030918B002115310509F418
:1007100060C02150310930938B0020938A00ABEAEE
:10072000BAEA0E94320B969587959093CF018093F9
:10073000CE018091F0019091F101807E9927806136
:100740009093F1018093F00144C0863F9105B0F190
:100750008091DE019091DF019C012C703327232BC7
:10076000C1F1837F99279093DF018093DE0110927E
:10077000E1011092E00120918A0030918B002E312E
:10078000310538F52F5F3F4F30938B0020938A005F
:10079000ABEABAEA0E94320B969587959093CF0107
:1007A0008093CE018091F0019091F101807D992795
:1007B00080629093F1018093F0010BC08091DE0183
:1007C0009091DF01837F992784609093DF0180936C
:1007D000DE018FEF82BB97B181E0892787B986B1AF
:1007E000806486B9BF91AF919F918F917F916F91F6
:1007F0003F912F910F900FBE0F901F9018951F9251
:100800000F920FB60F9211248F939F931BBE86B148
:10081000877B86B98091E0019091E101892B81F07D
:100820001092E1011092E0018091F0019091F101AC
:100830008F70992780649093F1018093F00111C02B
:1008400081E090E09093E1018093E0018091F001DC
:100850009091F1018F70992780639093F1018093BB
:10086000F0019F918F910F900FBE0F901F901895E0
:1008700088BB8BB3897F81608BBB8FE99FE0019739
:10088000F1F700C000008BB3887F8BBB08950F93F6
:100890001F93CF93DF938C018091D00180680E94D9
:1008A0003804C0E0D0E013C0F801EC0FFD1F8081D8
:1008B00088BB85E08BBB80E68A95F1F784E08BBB33
:1008C000CF30D10519F480EC0E9438042196F8014C
:1008D00001900020E9F73197E01BF10BCE17DF07FD
:1008E00018F3DF91CF911F910F910895CF93DF936C
:1008F000FC019C01ADECBCEC0E94320BAC015695A6
:1009000047955695479556954795EA01C295D295D4
:10091000D07FDC27C07FDC27CA01880F991F440FD6
:10092000551F440F551F440F551F480F591FCF0126
:10093000841B950B8C0F9D1FDF91CF9108958BB376
:100940008D7F85608BBB8AE68A95F1F700C08BB3FB
:100950008C7F84608BBB0895CF92DF92EF92FF92E1
:100960000F931F93CF93DF938091D6019091D7017E
:100970008A30910508F0ACC0880F991FFC01EC5833
:10098000FF4FA081B181FD0101900020E9F731976F
:10099000EA1BFB0B709728F00091D4011091D50150
:1009A00002C000E010E08091D00180680E9438040D
:1009B00081E090E09093D3018093D201E12CF12C5F
:1009C000C0E0D0E065C0E114F104E9F4893091059C
:1009D000B8F001960E9476046C01929582958F7012
:1009E00089279F708927805D88BB0E949F044FEFF5
:1009F000E41AF40A21968C2D8F70805D88BB39C073
:100A00008F5C88BB36C0CE010196E816F90619F452
:100A10008EE288BB2EC0CE010296E816F90619F4C4
:100A200080E288BB26C080E1E816F10448F42C1B64
:100A30003D0B23503109A20FB31F8C9188BB19C005
:100A40008091D4019091D50101969093D501809326
:100A5000D4010F5F1F4FC701800F911F8C1B9D0B8F
:100A60000397A80FB91F8C9188BB1092D3011092E5
:100A7000D2018091D2019091D301892B21F0109263
:100A8000D5011092D4014FEFE41AF40A0E949F049A
:100A900098012E0D3F1D8091D6019091D701FC0148
:100AA000EE0FFF1FEC58FF4FA081B181FD010190B7
:100AB0000020E9F73197EA1BFB0BEC0FFD1F339683
:100AC0002E173F0728F441E1E416F10408F47BCF28
:100AD000DF91CF911F910F91FF90EF90DF90CF901A
:100AE0000895CF93DF9380EC0E9438048091CA016F
:100AF0009091CB010E947604EC01929582958F70C3
:100B000089279F708927805D88BB0E949F04CF70D2
:100B1000C05DC8BB0E949F048AE388BB0E949F04FB
:100B20008091CC019091CD010E947604EC019295C8
:100B300082958F7089279F708927805D88BB0E946E
:100B40009F04CF70C05DC8BB0E949F0480E288BB39
:100B5000C0E0D0E003C00E949F042196C630D105BA
:100B6000D0F3C0E0D0E012C0E091D601F091D701FF
:100B7000EE0FFF1FE05AFF4F0190F081E02DEC0FC8
:100B8000FD1F808188BB0E949F042196C530D1053E
:100B900058F3DF91CF910895CF93DF938091DC01DB
:100BA00082FF3DC081E00E94380480E490E0909391
:100BB000D1018093D001ECE8F0E040815181828145
:100BC0009381BC01660F771F9C01220F331F220FF8
:100BD000331F220F331FCB01820F931F840F951FEA
:100BE00001978A30910530F49093D7018093D60114
:100BF0000E94AC041092D1011092D00180E990E0E3
:100C00000E944704CCE8D0E08A81805D88BB0E94C6
:100C10009F048881805D88BB0E949F0447C081FF3C
:100C200024C081E00E9438041092D1011092D001BA
:100C30000E94AC0480E490E09093D1018093D001B5
:100C40008091D6019091D70101969093D70180931E
:100C5000D6010E94AC048091D6019091D7010197F2
:100C60009093D7018093D60121C080FF14C081E00A
:100C70000E9438041092D1011092D0018091D801C5
:100C80009091D9019093D7018093D6010E94AC0432
:100C90000E9471050BC081E00E9438041092D101BE
:100CA0001092D0018AE990E00E9447042091DA0175
:100CB0003091DB018091DC019091DD01281739072B
:100CC000D9F48091E4019091E5010397A9F481E0C2
:100CD0000E94380481E090E09093DD018093DC0174
:100CE0008091D8019091D9019093D7018093D6013A
:100CF0001092E5011092E4018091DC019091DD01F8
:100D00009093DB018093DA01DF91CF910895809178
:100D1000E0019091E101892B09F05AC020918A00ED
:100D200030918B00ABEABAEA0E94320B9695879518
:100D30002091C8013091C9012817390708F044C033
:100D400082B3886F82BB8091C8019091C9010597D9
:100D500028F48BB38F7E88608BBB04C08BB3877FF6
:100D600080618BBB42B3E091C801F091C9019F0142
:100D7000ADECBCEC0E94320B9695879596958795C5
:100D80009C01220F331F220F331F820F931F9F01DD
:100D9000281B390B2D5F3F4F81E090E002C0880F88
:100DA000991F2A95E2F78095982F987F492B8760A5
:100DB000842382BB8091C8019091C90101969093D0
:100DC000C9018093C80108951092C9011092C80109
:100DD00008951F920F920FB60F9211242F933F93F5
:100DE0004F935F936F937F938F939F93AF93BF9333
:100DF000EF93FF938091E0019091E101892B11F431
:100E00000E9487068091880090918900893E23E0A6
:100E100092070CF4C4C0109289001092880080914F
:100E2000E6019091E701892B09F491C08091CC01F2
:100E30009091CD0101969093CD018093CC01CC97F8
:100E400069F48091CA019091CB0101969093CB01F6
:100E50008093CA011092CD011092CC014091D8012B
:100E60005091D901FA01EE0FFF1FE05AFF4F019098
:100E7000F081E02D808190E0C0979C01220F331F0C
:100E8000880F991F880F991F880F991F820F931F32
:100E9000218130E020533109820F931F2091CA0134
:100EA0003091CB018217930709F051C0838190E004
:100EB000C0979C01220F331F880F991F880F991F1D
:100EC000880F991F820F931F248130E0205331092E
:100ED000820F931F01962091CC013091CD01821792
:100EE0009307A9F58091F0019091F101807F9927F6
:100EF00081609093F1018093F0014F5F5F4F5093B9
:100F0000D9014093D8012091D6013091D7012F5FAC
:100F10003F4F3093D7012093D6011092CB0110920E
:100F2000CA011092CD011092CC014A30510579F4DA
:100F3000807F992785609093F1018093F001109252
:100F4000D9011092D8011092D7011092D601809148
:100F5000DC019091DD01019751F08091E4019091C5
:100F6000E50101969093E5018093E40104C010929D
:100F7000E5011092E4018BB7811105C080E48BBFBD
:100F800086B1886086B98091D4019091D50100978F
:100F900059F001969093D5018093D40105C0019634
:100FA0009093890080938800FF91EF91BF91AF915A
:100FB0009F918F917F916F915F914F913F912F9171
:100FC0000F900FBE0F901F9018958FE38ABB8FEF85
:100FD00087BB8FE084BB80EF85BB8EEF81BB84E055
:100FE00082BB82E089BF9DE79CBF9BE093BF90E4FA
:100FF0009BBF85BF86E687B98FEA86B960E875E250
:1010000080E090E00E94490081E00E94380486E080
:101010000E9438048CE00E94380488E30E9438045F
:1010200081E090E09093DD018093DC018AE090E024
:1010300090938B0080938A0083E090E09093CF019F
:101040008093CE018BB38F7E88608BBB41E06AE0DA
:1010500082E20E9479002FE788E391E021508040EE
:101060009040E1F700C0000040E060E082E00E94B4
:10107000790080EA90E00E944704C0E4D0E0D09379
:10108000D101C093D0018DEA90E00E9447041092F4
:10109000D1011092D0012FEF89E698E121508040D4
:1010A0009040E1F700C0000081E00E94380487EB27
:1010B00090E00E944704D093D101C093D00182EC0C
:1010C00090E00E9447041092D1011092D0012FEFBE
:1010D00089E698E1215080409040E1F700C000008F
:1010E00081E00E9438048FEC90E00E944704D09386
:1010F000D101C093D0018CED90E00E944704109282
:10110000D1011092D0012FEF89E698E12150804063
:101110009040E1F700C0000081E00E94380487EEB3
:1011200090E00E944704D093D101C093D00182EF98
:1011300090E00E9447041092D1011092D0012FEF4D
:1011400089E698E1215080409040E1F700C000001E
:1011500081E00E94380486B1806486B978940E9448
:101160009E000E948C01809188009091890060E22D
:1011700073E00E941E0B813991408CF30E94CC05D4
:10118000EECF5058BB27AA270E94D9080C942A0AF0
:101190000E941C0A38F00E94230A20F039F49F3F75
:1011A00019F426F40C94190A0EF4E095E7FB0C945C
:1011B000130AE92F0E943B0A58F3BA176207730714
:1011C0008407950720F079F4A6F50C945D0A0EF4D7
:1011D000E0950B2EBA2FA02D0B01B90190010C0147
:1011E000CA01A0011124FF27591B99F0593F50F45F
:1011F000503E68F11A16F040A22F232F342F4427B7
:10120000585FF3CF469537952795A795F0405395AE
:10121000C9F77EF41F16BA0B620B730B840BBAF07E
:101220009150A1F0FF0FBB1F661F771F881FC2F7E9
:101230000EC0BA0F621F731F841F48F487957795FD
:101240006795B795F7959E3F08F0B0CF9395880FB7
:1012500008F09927EE0F9795879508950E94420907
:101260000C942A0A0E94230A58F00E941C0A40F09B
:1012700029F45F3F29F00C94130A51110C945E0A73
:101280000C94190A0E943B0A68F39923B1F3552381
:1012900091F3951B550BBB27AA2762177307840789
:1012A00038F09F5F5F4F220F331F441FAA1FA9F31F
:1012B00035D00E2E3AF0E0E832D091505040E6950D
:1012C000001CCAF72BD0FE2F29D0660F771F881F6E
:1012D000BB1F261737074807AB07B0E809F0BB0B61
:1012E000802DBF01FF2793585F4F3AF09E3F510575
:1012F00078F00C94130A0C945E0A5F3FE4F3983E76
:10130000D4F3869577956795B795F7959F5FC9F75D
:10131000880F911D9695879597F90895E1E0660FDE
:10132000771F881FBB1F621773078407BA0720F057
:10133000621B730B840BBA0BEE1F88F7E0950895C0
:101340000E94A7096894B1110C945E0A08950E9446
:10135000430A88F09F5798F0B92F9927B751B0F0FA
:10136000E1F0660F771F881F991F1AF0BA95C9F729
:1013700014C0B13091F00E945D0AB1E008950C9460
:101380005D0A672F782F8827B85F39F0B93FCCF313
:10139000869577956795B395D9F73EF490958095A6
:1013A000709561957F4F8F4F9F4F0895E89409C0C6
:1013B00097FB3EF490958095709561957F4F8F4F88
:1013C0009F4F9923A9F0F92F96E9BB279395F6959E
:1013D000879577956795B795F111F8CFFAF4BB0F1C
:1013E00011F460FF1BC06F5F7F4F8F4F9F4F16C080
:1013F000882311F096E911C0772321F09EE8872F0A
:10140000762F05C0662371F096E8862F70E060E0C5
:101410002AF09A95660F771F881FDAF7880F96953E
:10142000879597F9089597F99F6780E870E060E0E5
:1014300008959FEF80EC089500240A94161617066D
:1014400018060906089500240A94121613061406B5
:1014500005060895092E0394000C11F4882352F018
:10146000BB0F40F4BF2B11F460FF04C06F5F7F4FD0
:101470008F4F9F4F089557FD9058440F551F59F0B7
:101480005F3F71F04795880F97FB991F61F09F3F71
:1014900079F087950895121613061406551FF2CF9A
:1014A0004695F1DF08C0161617061806991FF1CFEA
:1014B00086957105610508940895E894BB27662711
:1014C0007727CB0197F908950E94770A0C942A0A8E
:1014D0000E941C0A38F00E94230A20F0952311F084
:1014E0000C94130A0C94190A11240C945E0A0E949D
:1014F0003B0A70F3959FC1F3950F50E0551F629F13
:10150000F001729FBB27F00DB11D639FAA27F00D5C
:10151000B11DAA1F649F6627B00DA11D661F829F83
:101520002227B00DA11D621F739FB00DA11D621F68
:10153000839FA00D611D221F749F3327A00D611D85
:10154000231F849F600D211D822F762F6A2F112467
:101550009F5750409AF0F1F088234AF0EE0FFF1F9A
:10156000BB1F661F771F881F91505040A9F79E3FF1
:10157000510580F00C94130A0C945E0A5F3FE4F36B
:10158000983ED4F3869577956795B795F795E79547
:101590009F5FC1F7FE2B880F911D9695879597F950
:1015A00008950E94430AE8F09E37E8F09639B8F4AF
:1015B0009E3848F4672F782F8827985FF9CF869553
:1015C0007795679593959539D0F3B62FB1706B0FDA
:1015D000711D811D20F487957795679593950C94DF
:1015E000F50A0C94100B0C945E0A882371F477238F
:1015F00021F09850872B762F07C0662311F4992786
:101600000DC09051862B70E060E02AF09A95660F2D
:10161000771F881FDAF7880F9695879597F90895B1
:101620009F3F31F0915020F4879577956795B79556
:10163000880F911D9695879597F9089597FB072E2A
:1016400016F4009407D077FD09D00E94410B07FCE7
:1016500005D03EF4909581959F4F089570956195C2
:101660007F4F0895A29FB001B39FC001A39F700D4B
:10167000811D1124911DB29F700D811D1124911D9A
:101680000895AA1BBB1B51E107C0AA1FBB1FA617C9
:10169000B70710F0A61BB70B881F991F5A95A9F71B
:0E16A00080959095BC01CD010895F894FFCF80
:1016AE00FE0004010A01100116011C01220128018D
:1016BE002E01FE0034013F014D015E016C017801E7
:1016CE0086018C0192019C0101000A0000000200BB
:1016DE0043616E63696F6E3A20004572726F7200DD
:1016EE002020202042697442794269740020202013
:1016FE002020204D503300202020202020526175C4
:10170E006C0020202020204E61766172726F0020C6
:10171E0020204672616E636973636F002020202063
:10172E0020526F63686100202020202020416C65CC
:10173E0078002020202020466C6F726573003030B8
:10174E003A32300030303A32350030303A313000F3
:10175E0030303A31350030303A30390030303A31AD
:10176E00310030303A30380030303A3134003030D9
:10177E003A3132003139746820466C6F6F72004214
:10178E006C61636B204361746368657200456467C6
:10179E0065206F6620457465726E697479004669BE
:1017AE006E6420796F7572207761790053686520B9
:1017BE006E6F2044756C6C00447265616D20746FA1
:1017CE00206C69766500467265736800526F6164BD
:1017DE007300526F6164205472697000576F727497
:1017EE006820612054727900010002000300FF009E
:1017FE00040005000600FF000700080009000A00AB
:08180E000B0000000C000D00AE
:00000001FF
